{
  "contractName": "dataCon",
  "abi": [
    {
      "inputs": [
        {
          "internalType": "string",
          "name": "user",
          "type": "string"
        },
        {
          "internalType": "string",
          "name": "productId",
          "type": "string"
        },
        {
          "internalType": "string",
          "name": "productName",
          "type": "string"
        },
        {
          "internalType": "string",
          "name": "auctionId",
          "type": "string"
        },
        {
          "internalType": "string",
          "name": "soldTo",
          "type": "string"
        },
        {
          "internalType": "string",
          "name": "soldBy",
          "type": "string"
        },
        {
          "internalType": "uint32",
          "name": "soldAt",
          "type": "uint32"
        }
      ],
      "name": "addBidDetails",
      "outputs": [],
      "stateMutability": "nonpayable",
      "type": "function"
    },
    {
      "inputs": [
        {
          "internalType": "string",
          "name": "user",
          "type": "string"
        }
      ],
      "name": "getBidDetails",
      "outputs": [
        {
          "components": [
            {
              "internalType": "string",
              "name": "productId",
              "type": "string"
            },
            {
              "internalType": "string",
              "name": "productName",
              "type": "string"
            },
            {
              "internalType": "string",
              "name": "auctionId",
              "type": "string"
            },
            {
              "internalType": "string",
              "name": "soldBy",
              "type": "string"
            },
            {
              "internalType": "string",
              "name": "soldTo",
              "type": "string"
            },
            {
              "internalType": "uint32",
              "name": "soldAt",
              "type": "uint32"
            }
          ],
          "internalType": "struct dataCon.userData[]",
          "name": "",
          "type": "tuple[]"
        }
      ],
      "stateMutability": "view",
      "type": "function",
      "constant": true
    }
  ],
  "bytecode": "0x608060405234801561001057600080fd5b50610c1d806100206000396000f3fe608060405234801561001057600080fd5b50600436106100365760003560e01c8063b9fc739c1461003b578063e5b037b214610057575b600080fd5b61005560048036038101906100509190610780565b610087565b005b610071600480360381019061006c91906108ca565b6101ca565b60405161007e9190610b11565b60405180910390f35b60006040518060c001604052808881526020018781526020018681526020018481526020018581526020018363ffffffff1681525090506000886040516100ce9190610b6f565b90815260200160405180910390208190806001815401808255809150506001900390600052602060002090600602016000909190919091506000820151816000019080519060200190610122929190610547565b50602082015181600101908051906020019061013f929190610547565b50604082015181600201908051906020019061015c929190610547565b506060820151816003019080519060200190610179929190610547565b506080820151816004019080519060200190610196929190610547565b5060a08201518160050160006101000a81548163ffffffff021916908363ffffffff16021790555050505050505050505050565b60606000826040516101dc9190610b6f565b9081526020016040518091039020805480602002602001604051908101604052809291908181526020016000905b8282101561053c57838290600052602060002090600602016040518060c001604052908160008201805461023d90610bb5565b80601f016020809104026020016040519081016040528092919081815260200182805461026990610bb5565b80156102b65780601f1061028b576101008083540402835291602001916102b6565b820191906000526020600020905b81548152906001019060200180831161029957829003601f168201915b505050505081526020016001820180546102cf90610bb5565b80601f01602080910402602001604051908101604052809291908181526020018280546102fb90610bb5565b80156103485780601f1061031d57610100808354040283529160200191610348565b820191906000526020600020905b81548152906001019060200180831161032b57829003601f168201915b5050505050815260200160028201805461036190610bb5565b80601f016020809104026020016040519081016040528092919081815260200182805461038d90610bb5565b80156103da5780601f106103af576101008083540402835291602001916103da565b820191906000526020600020905b8154815290600101906020018083116103bd57829003601f168201915b505050505081526020016003820180546103f390610bb5565b80601f016020809104026020016040519081016040528092919081815260200182805461041f90610bb5565b801561046c5780601f106104415761010080835404028352916020019161046c565b820191906000526020600020905b81548152906001019060200180831161044f57829003601f168201915b5050505050815260200160048201805461048590610bb5565b80601f01602080910402602001604051908101604052809291908181526020018280546104b190610bb5565b80156104fe5780601f106104d3576101008083540402835291602001916104fe565b820191906000526020600020905b8154815290600101906020018083116104e157829003601f168201915b505050505081526020016005820160009054906101000a900463ffffffff1663ffffffff1663ffffffff16815250508152602001906001019061020a565b505050509050919050565b82805461055390610bb5565b90600052602060002090601f01602090048101928261057557600085556105bc565b82601f1061058e57805160ff19168380011785556105bc565b828001600101855582156105bc579182015b828111156105bb5782518255916020019190600101906105a0565b5b5090506105c991906105cd565b5090565b5b808211156105e65760008160009055506001016105ce565b5090565b6000604051905090565b600080fd5b600080fd5b600080fd5b600080fd5b6000601f19601f8301169050919050565b7f4e487b7100000000000000000000000000000000000000000000000000000000600052604160045260246000fd5b61065182610608565b810181811067ffffffffffffffff821117156106705761066f610619565b5b80604052505050565b60006106836105ea565b905061068f8282610648565b919050565b600067ffffffffffffffff8211156106af576106ae610619565b5b6106b882610608565b9050602081019050919050565b82818337600083830152505050565b60006106e76106e284610694565b610679565b90508281526020810184848401111561070357610702610603565b5b61070e8482856106c5565b509392505050565b600082601f83011261072b5761072a6105fe565b5b813561073b8482602086016106d4565b91505092915050565b600063ffffffff82169050919050565b61075d81610744565b811461076857600080fd5b50565b60008135905061077a81610754565b92915050565b600080600080600080600060e0888a03121561079f5761079e6105f4565b5b600088013567ffffffffffffffff8111156107bd576107bc6105f9565b5b6107c98a828b01610716565b975050602088013567ffffffffffffffff8111156107ea576107e96105f9565b5b6107f68a828b01610716565b965050604088013567ffffffffffffffff811115610817576108166105f9565b5b6108238a828b01610716565b955050606088013567ffffffffffffffff811115610844576108436105f9565b5b6108508a828b01610716565b945050608088013567ffffffffffffffff811115610871576108706105f9565b5b61087d8a828b01610716565b93505060a088013567ffffffffffffffff81111561089e5761089d6105f9565b5b6108aa8a828b01610716565b92505060c06108bb8a828b0161076b565b91505092959891949750929550565b6000602082840312156108e0576108df6105f4565b5b600082013567ffffffffffffffff8111156108fe576108fd6105f9565b5b61090a84828501610716565b91505092915050565b600081519050919050565b600082825260208201905092915050565b6000819050602082019050919050565b600081519050919050565b600082825260208201905092915050565b60005b8381101561097957808201518184015260208101905061095e565b83811115610988576000848401525b50505050565b60006109998261093f565b6109a3818561094a565b93506109b381856020860161095b565b6109bc81610608565b840191505092915050565b6109d081610744565b82525050565b600060c08301600083015184820360008601526109f3828261098e565b91505060208301518482036020860152610a0d828261098e565b91505060408301518482036040860152610a27828261098e565b91505060608301518482036060860152610a41828261098e565b91505060808301518482036080860152610a5b828261098e565b91505060a0830151610a7060a08601826109c7565b508091505092915050565b6000610a8783836109d6565b905092915050565b6000602082019050919050565b6000610aa782610913565b610ab1818561091e565b935083602082028501610ac38561092f565b8060005b85811015610aff5784840389528151610ae08582610a7b565b9450610aeb83610a8f565b925060208a01995050600181019050610ac7565b50829750879550505050505092915050565b60006020820190508181036000830152610b2b8184610a9c565b905092915050565b600081905092915050565b6000610b498261093f565b610b538185610b33565b9350610b6381856020860161095b565b80840191505092915050565b6000610b7b8284610b3e565b915081905092915050565b7f4e487b7100000000000000000000000000000000000000000000000000000000600052602260045260246000fd5b60006002820490506001821680610bcd57607f821691505b60208210811415610be157610be0610b86565b5b5091905056fea2646970667358221220fbe8450e1013e321642fb48e801fc0a598c7cdb65649bb57da568199eb602da364736f6c634300080a0033",
  "immutableReferences": {},
  "source": "// SPDX-License-Identifier: MIT\n\npragma solidity ^0.8.0;\n\ncontract dataCon {\n    //Defining structure \n    struct userData {\n        string productId;\n        string productName;\n        string auctionId;\n        string soldBy;\n        string soldTo;\n        uint32 soldAt;\n    }\n    mapping (string => userData[]) userMap;    \n    function addBidDetails(string memory user,string memory productId,string memory productName,string memory auctionId,string memory soldTo,string memory soldBy,uint32 soldAt) public {\n        userData memory u = userData({productId:productId,productName:productName,auctionId:auctionId,soldTo:soldTo,soldBy:soldBy,soldAt:soldAt});\n        userMap[user].push(u);\n    }\n    function getBidDetails(string memory user) public view returns (userData [] memory){\n        return userMap[user];\n    } \n}",
  "sourcePath": "/home/pain/Documents/version-beta/bid-data-smart-contract/contracts/dataCon.sol",
  "compiler": {
    "name": "solc",
    "version": "0.8.10+commit.fc410830.Emscripten.clang"
  },
  "schemaVersion": "3.4.10",
  "updatedAt": "2022-12-03T09:51:22.655Z",
  "networkType": "ethereum",
  "devdoc": {
    "kind": "dev",
    "methods": {},
    "version": 1
  },
  "userdoc": {
    "kind": "user",
    "methods": {},
    "version": 1
  }
}